:020000040000FA
:0410000011EF08F0F4
:1010080006828A789EA60BEF08F00DEF08F00FEF26
:1010180008F09E968B7206921100E9EF08F0C7B4AB
:1010280018EF08F01AEF08F013EF08F0C5CF01F039
:101038001F0E0116D8A423EF08F025EF08F013EFD0
:1010480008F0C586C7B42BEF08F02DEF08F026EF9F
:1010580008F0C5CF01F01F0E0116D8A436EF08F02E
:1010680038EF08F026EF08F0C9CF02F0C7B43FEF19
:1010780008F041EF08F03AEF08F0C5CF01F01F0E75
:101088000116D8A44AEF08F04CEF08F03AEF08F040
:10109800C58AC5880250120088EC08F0DCEC08F01C
:1010A800770E056EF28E000E8A6E000E8B6E8B74B4
:1010B800C8EC08F0300E9EEC08F005509EEC08F0E5
:1010C80005509EEC08F005509EEC08F0B4EC08F0D2
:1010D800C8EC08F0310E9EEC08F013EC08F0056E31
:1010E80005C089FFB4EC08F0020E046ED40E036E3E
:1010F800850EE82EFED7032EFCD7042EFAD700F073
:101108005BEF08F011EF08F0000E896E000E926E8A
:10111800000EC16E000E0F015B6F000E986E000E80
:101128008A6E000E936E000E8B6E000E946EF29E09
:10113800F28A1200026EC7B4A4EF08F0A6EF08F016
:101148009FEF08F0C5CF01F01F0E0116D8A4AFEF2E
:1011580008F0B1EF08F09FEF08F002C0C9FF1200D5
:10116800C7B4B9EF08F0BBEF08F0B4EF08F0C5CF8B
:1011780001F01F0E0116D8A4C4EF08F0C6EF08F05E
:10118800B4EF08F0C5841200C7B4CDEF08F0CFEF74
:1011980008F0C8EF08F0C5CF01F01F0E0116D8A45B
:1011A800D8EF08F0DAEF08F0C8EF08F0C5801200B1
:1011B80093809382280EC66E000EC56E770EC86E99
:1011C800800EC76E9D86F28C120006900692000172
:0411D80050EF08F0DC
:020000040020DA
:08000000FFFFFFFFFFFFFFFF00
:020000040030CA
:0E00000000255F3FFFD385FF0FC00FE00F40CC
:00000001FF
