:020000040000FA
:041000009EEF08F067
:101008002582E1CF1CF0E2CF1DF0D9CF1EF0DACF58
:101018001FF09EA612EF08F014EF08F093EF08F007
:10102800C7BA19EF08F01BEF08F054EF08F0C9CF62
:101038001AF0C7A422EF08F024EF08F04EEF08F0EA
:10104800010E176E1704D8A42CEF08F02EEF08F045
:101058008FEF08F00A0E166034EF08F036EF08F04C
:101068008FEF08F00C0E1624D96EDA6A000EDA2219
:10107800DF50C96E162A0A0E1618D8A446EF08F0D3
:1010880048EF08F052EF08F0000E176E000E166ECB
:101098008FEF08F0020E176E8FEF08F08FEF08F051
:1010A800020E1718D8A45BEF08F05DEF08F08BEF7D
:1010B80008F00A0E0B6063EF08F065EF08F08BEF9D
:1010C80008F0010E0B24D96EDA6A000EDA22C9CFB5
:1010D800DFFF010E0B24D96EDA6A000EDA220C0E3D
:1010E8000B24E16EE26A000EE222DFCFE7FF0B2A53
:1010F8000A0E0B18D8A483EF08F085EF08F08FEFDD
:1011080008F0000E0B6E000E176E8FEF08F0000E41
:10111800176E000E0B6EC69CC69E9E96C6889E5085
:101128001FC0DAFF1EC0D9FF1DC0E2FF1CC0E1FFCF
:101138002592110056EF09F0226E206A22AE01D0E6
:10114800202A010E2016203220328A5020187F0BC8
:1011580020188A6E22C020F0060E216ED890203208
:10116800212EB2EF08F0010E2016203A2046204624
:101178008A502018BF0B20188A6E22C020F0050E56
:10118800216ED8902032212EC5EF08F0010E2016CE
:10119800203A20468A502018DF0B20188A6E22C079
:1011A80020F0203A0F0E2016010E2016203A8A5001
:1011B8002018EF0B20188A6E22C020F0D890203219
:1011C800D8902032D8902032010E20162046204692
:1011D80020468A502018F70B20188A6E22C020F06B
:1011E800D8902032D8902032010E20162046204672
:1011F8008A502018FB0B20188A6E22C020F0D89045
:101208002032010E201620468B502018FD0B201886
:101218008B6E8B84120041EC09F06AEC09F0000E29
:10122800166E000E0B6EF28E000E8A6E000E896E20
:1012380001C089FF0250A0EC08F003C023F0010EA2
:101248002316233A234623468B502318BF0B231813
:101258008B6E03C023F0D8902332010E231623325D
:1012680023328B5023187F0B23188B6E280EE82E01
:10127800FED71CEF09F09EEF08F0000E896E000EF5
:10128800926E000EC16E000E0F015B6F000E986E1D
:10129800000E8A6E000E936E000E8B6E000E946E1A
:1012A800F29E1200EE0EF66E120EF76E000EF86E3B
:1012B8000900F5CF24F000EE01F01B0EEE6AE806F7
:1012C800FDE12590259200010FEF09F093809382AC
:1012D800400EC86E360EC66E800EC76E010EC56E05
:0712E8009D86F28C1200113B
:020000040020DA
:08000000FFFFFFFFFFFFFFFF00
:020000040030CA
:0E00000000255F3FFFD385FF0FC00FE00F40CC
:00000001FF
