:020000040000FA
:04100000AFEF08F056
:101008002482E1CF1EF0E2CF1FF0D9CF20F0DACF53
:1010180021F09EA612EF08F014EF08F0A5EF08F0F3
:10102800C7BA19EF08F01BEF08F05DEF08F0C9CF59
:101038001AF08B7EC7A423EF08F025EF08F057EFCE
:1010480008F0010E176E1704D8A42DEF08F02FEF43
:1010580008F0A1EF08F00A0E166035EF08F037EF38
:1010680008F0A1EF08F00C0E1624D96EDA6A000E0B
:10107800DA22DF50C96E0C0E1624D96EDA6A000E19
:10108800DA22DF50896E162A0A0E1618D8A44FEFF6
:1010980008F051EF08F05BEF08F0000E176E000E35
:1010A800166EA1EF08F0020E176EA1EF08F0A1EF7F
:1010B80008F0020E1718D8A464EF08F066EF08F0DD
:1010C8009DEF08F00A0E0B606CEF08F06EEF08F069
:1010D8009DEF08F0010E0B24D96EDA6A000EDA22B1
:1010E800C9CFDFFF010E0B24D96EDA6A000EDA22AF
:1010F800DF50B1EC08F0010E0B24D96EDA6A000E4D
:10110800DA220C0E0B24E16EE26A000EE222DFCF37
:10111800E7FF0B2A0A0E0B18D8A495EF08F097EFF3
:1011280008F0A1EF08F0000E0B6E000E176EA1EF8D
:1011380008F0000E176E000E0B6EC69CC69E9E969B
:10114800C68821C0DAFF20C0D9FF1FC0E2FF1EC039
:10115800E1FF24921100FEEF08F01D6E1DC08AFF0A
:101168001DC01CF0D8901C32D8901C32010E1C16E1
:101178001C468B501C18FD0B1C188B6E1DC01CF0D8
:10118800D8901C32010E1C161C461C468B501C188D
:10119800FB0B1C188B6E1200E9EC08F012EC09F03E
:1011A800000E166E000E0B6EF28E000E8A6E000E8A
:1011B800896E100E226E940EE82EFED7222EFCD7D2
:1011C80000D0DDEF08F0AFEF08F0000E896E000EDA
:1011D800926E000EC16E000E0F015B6F000E986ECE
:1011E800000E8A6E000E936E000E8B6E000E946ECB
:1011F800F29E12003E0EF66E120EF76E000EF86E9C
:101208000900F5CF23F000EE01F01B0EEE6AE806A8
:10121800FDE1249024920001D0EF08F0938093829E
:10122800400EC86E360EC66E800EC76E010EC56EB5
:071238009D86F28C120011EB
:020000040020DA
:08000000FFFFFFFFFFFFFFFF00
:020000040030CA
:0E00000000255F3FFFD385FF0FC00FE00F40CC
:00000001FF
