:020000040000FA
:041000002FEF08F0D6
:101008001E829EA60AEF08F00CEF08F02DEF08F0FC
:10101800C7A411EF08F013EF08F01BEF08F08B8E50
:101028001B061BC0C9FF1BC089FF1CEF08F08B9E65
:10103800C7BA21EF08F023EF08F027EF08F0C9CF6F
:101048001AF029EF08F0C9CF1BF0C69CC69E9E96E1
:10105800C6881E92110061EF08F04CEC08F075ECA0
:1010680008F0000E166E000E0B6EF28E000E8A6EE1
:10107800000E896E100E1D6E940EE82EFED71D2EE2
:10108800FCD700D01BC019F03EEF08F02FEF08F096
:10109800000E896E000E926E000EC16E000E0F01DA
:1010A8005B6F000E986E000E8A6E000E936E000E37
:1010B8008B6E000E946EF29E1200040EF66E110EE8
:1010C800F76E000EF86E0900F5CF1CF000EE01F087
:1010D8001B0EEE6AE806FDE11E901E92000131EF3C
:1010E80008F093809382400EC86E360EC66E800E4E
:0D10F800C76E010EC56E9D86F28C120011B0
:020000040020DA
:08000000FFFFFFFFFFFFFFFF00
:020000040030CA
:0E00000000255F3FFFD385FF0FC00FE00F40CC
:00000001FF
