:020000040000FA
:04100000A5EF08F060
:101008002182D9CF1EF0DACF1FF09EA60EEF08F08E
:1010180010EF08F093EF08F0C7BA15EF08F017EFD4
:1010280008F059EF08F0C9CF1AF08B7EC7A41FEF5C
:1010380008F021EF08F053EF08F0010E176E1704BF
:10104800D8A429EF08F02BEF08F08FEF08F00A0E6C
:10105800166031EF08F033EF08F08FEF08F00C0E50
:101068001624D96EDA6A000EDA22DF50C96E0C0E29
:101078001624D96EDA6A000EDA22DF50896E162A33
:101088000A0E1618D8A44BEF08F04DEF08F057EFEA
:1010980008F0000E176E000E166E8FEF08F0020EA5
:1010A800176E8FEF08F08FEF08F0020E1718D8A40C
:1010B80060EF08F062EF08F08BEF08F00A0E0B60A3
:1010C80068EF08F06AEF08F08BEF08F0010E0B24C8
:1010D800D96EDA6A000EDA22C9CFDFFF010E0B24BF
:1010E800D96EDA6A000EDA22DF50A7EC08F00B2A74
:1010F8000A0E0B18D8A483EF08F085EF08F08FEFDD
:1011080008F0000E0B6E000E176E8FEF08F0000E41
:10111800176E000E0B6EC69CC69E9E96C6889EAC29
:1011280098EF08F09AEF08F09FEF08F09E9CC4CF64
:101138000CF0C3CF0DF01FC0DAFF1EC0D9FF2192FB
:101148001100F3EF08F01D6E1DC08AFF1DC01CF0D2
:10115800D8901C32D8901C32010E1C161C468B509D
:101168001C18FD0B1C188B6E1DC01CF0D8901C326F
:10117800010E1C161C461C468B501C18FB0B1C1819
:101188008B6E1200DEEC08F007EC09F014EC09F0A5
:10119800000E166E000E0B6EF28E000E8A6E000E9A
:1011A800896EF00E00D0E82EFDD7C282D5EF08F088
:1011B800A5EF08F0000E896E010E926E000EC16E4A
:1011C800000E0F015B6F000E986E000E8A6E000E07
:1011D800936E000E8B6E000E946EF29E1200360E09
:1011E800F66E120EF76E000EF86E0900F5CF20F0BD
:1011F80000EE01F01B0EEE6AE806FDE12190219257
:101208000001C6EF08F093809382400EC86E360E38
:10121800C66E800EC76E010EC56E9D86F28C1200DA
:0F122800010EC26E000EC16E080EC06E120011D4
:020000040020DA
:08000000FFFFFFFFFFFFFFFF00
:020000040030CA
:0E00000000255F3FFFD385FF0FC00FE00F40CC
:00000001FF
