:020000040000FA
:041000002FEF08F0D6
:1010080007829EA60AEF08F00CEF08F02DEF08F013
:10101800C7A411EF08F013EF08F01BEF08F08B8E50
:10102800040604C0C9FF04C089FF1CEF08F08B9EAA
:10103800C7BA21EF08F023EF08F027EF08F0C9CF6F
:1010480003F029EF08F0C9CF04F0C69CC69E9E960F
:10105800C688079211005DEF08F048EC08F06FECC5
:1010680008F0F28E000E8A6E000E896E100E066E63
:10107800940EE82EFED7062EFCD700D004C002F04E
:101088003AEF08F02FEF08F0000E896E000E926E0E
:10109800000EC16E000E0F015B6F000E986E000E01
:1010A8008A6E000E936E000E8B6E000E946EF29E8A
:1010B8001200F80EF66E100EF76E000EF86E0900AC
:1010C800F5CF05F0046A036A026A016A079007927D
:1010D800000131EF08F093809382400EC86E360EFF
:1010E800C66E800EC76E010EC56E9D86F28C12000C
:0110F80011E6
:020000040020DA
:08000000FFFFFFFFFFFFFFFF00
:020000040030CA
:0E00000000255F3FFFD385FF0FC00FE00F40CC
:00000001FF
