:020000040000FA
:04100000AAEF08F05B
:101008002182E1CF1CF0E2CF1DF0D9CF1EF0DACF5C
:101018001FF09EA612EF08F014EF08F094EF08F006
:10102800C7BA19EF08F01BEF08F055EF08F0C9CF61
:101038001AF08B7EC7A423EF08F025EF08F04FEFD6
:1010480008F0010E176E1704D8A42DEF08F02FEF43
:1010580008F090EF08F00A0E166035EF08F037EF49
:1010680008F090EF08F00C0E1624D96EDA6A000E1C
:10107800DA22DF50C96E162A0A0E1618D8A447EFCE
:1010880008F049EF08F053EF08F0000E176E000E55
:10109800166E90EF08F0020E176E90EF08F090EFC2
:1010A80008F0020E1718D8A45CEF08F05EEF08F0FD
:1010B8008CEF08F00A0E0B6064EF08F066EF08F09A
:1010C8008CEF08F0010E0B24D96EDA6A000EDA22D2
:1010D800C9CFDFFF010E0B24D96EDA6A000EDA22BF
:1010E8000C0E0B24E16EE26A000EE222DFCFE7FF6E
:1010F8000B2A0A0E0B18D8A484EF08F086EF08F024
:1011080090EF08F0000E0B6E000E176E90EF08F0CF
:10111800000E176E000E0B6EC69CC69E9E96C68865
:101128009EAC99EF08F09BEF08F0A0EF08F09E9CAA
:10113800C4CF0CF0C3CF0DF01FC0DAFF1EC0D9FF1B
:101148001DC0E2FF1CC0E1FF21921100D9EF08F099
:10115800C4EC08F0EDEC08F0FAEC08F0000E166E9E
:10116800000E0B6EF28E000E8A6E000E896EF00E67
:1011780000D0E82EFDD7C282BBEF08F0AAEF08F036
:10118800000E896E010E926E000EC16E000E0F01E8
:101198005B6F000E986E000E8A6E000E936E000E46
:1011A8008B6E000E946EF29E1200020EF66E120EF8
:1011B800F76E000EF86E0900F5CF20F000EE01F092
:1011C8001B0EEE6AE806FDE1219021920001ACEFCA
:1011D80008F093809382300EC86E360EC66E800E6D
:1011E800C76E010EC56E9D86F28C1200010EC26E8E
:0B11F800000EC16E080EC06E12001148
:020000040020DA
:08000000FFFFFFFFFFFFFFFF00
:020000040030CA
:0E00000000255F3FFFD385FF0FC00FE00F40CC
:00000001FF
